:020000040800F2
:1000000000000220D5110008F50F0008F70F0008C6
:10001000F90F0008FB0F0008FD0F000800000000AA
:10002000000000000000000000000000912C00080B
:10003000FF0F000800000000312D0008952D00087A
:1000400025120008251200082512000825120008B4
:1000500025120008251200082512000825120008A4
:100060002512000825120008251200082512000894
:100070002512000825120008251200082512000884
:10008000251200080110000825120008251200089A
:100090002512000825120008251200082512000864
:1000A0002512000825120008251200082512000854
:1000B000251200082512000811100008251200085A
:1000C0002512000825120008251200082512000834
:1000D000251200082512000821100008251200082A
:1000E0002512000825120008251200082512000814
:1000F0002512000825120008251200082512000804
:1001000025120008251200082512000825120008F3
:1001100025120008251200082512000825120008E3
:1001200025120008251200082512000825120008D3
:1001300025120008251200082512000825120008C3
:1001400025120008251200082512000825120008B3
:1001500025120008251200082512000825120008A3
:100160002512000825120008251200082512000893
:1001700025120008251200082512000800000000C2
:080180002512000825120008F9
:1001C00070B54FF0FF0C4CF4E06C1CEA11541DBFED
:1001D0001CEA135594EA0C0F95EA0C0F00F0DEF8B8
:1001E0002C4481EA030621EA4C5123EA4C5350EA9D
:1001F000013518BF52EA033541F4801143F48013EE
:1002000038D0A0FB02CE4FF00005E1FB02E506F07E
:100210000042E0FB03E54FF00006E1FB03569CF0D3
:10022000000F18BF4EF0010EA4F1FF04B6F5007FD9
:1002300064F5407404D25FEA4E0E6D4146EB06064B
:1002400042EAC62141EA55514FEAC52040EA5E50D4
:100250004FEACE2EB4F1FD0C88BFBCF5E06F1ED87E
:10026000BEF1004F08BF5FEA500E50F1000041EBB5
:10027000045170BD06F0004646EA010140EA020062
:1002800081EA0301B4EB5C04C2BFD4EB0C0541EA84
:10029000045170BD41F480114FF0000E013C00F399
:1002A000AB8014F1360FDEBF002001F0004170BDBD
:1002B000C4F10004203C35DA0C341BDC04F11404D6
:1002C000C4F1200500FA05F320FA04F001FA05F262
:1002D00040EA020001F0004221F0004110EBD3702F
:1002E00021FA04F642EB06015EEA430E08BF20EA5B
:1002F000D37070BDC4F10C04C4F1200500FA04F3FE
:1003000020FA05F001FA04F240EA020001F000418F
:1003100010EBD37041F100015EEA430E08BF20EA02
:10032000D37070BDC4F1200500FA05F24EEA020E4A
:1003300020FA04F301FA05F243EA020321FA04F079
:1003400001F0004121FA04F220EA020000EBD37030
:100350005EEA430E08BF20EAD37070BD94F0000F30
:100360000FD101F00046400041EB010111F4801F64
:1003700008BF013CF7D041EA060195F0000F18BF15
:10038000704703F00046520043EB030313F4801F51
:1003900008BF013DF7D043EA0603704794EA0C0F0B
:1003A0000CEA135518BF95EA0C0F0CD050EA410621
:1003B00018BF52EA4306D1D181EA030101F000419E
:1003C0004FF0000070BD50EA410606BF10461946C6
:1003D00052EA430619D094EA0C0F02D150EA0136D2
:1003E00013D195EA0C0F05D152EA03361CBF104613
:1003F00019460AD181EA030101F0004141F0FE41B2
:1004000041F470014FF0000070BD41F0FE4141F435
:10041000780170BD81F0004102E000BF83F000432D
:1004200030B54FEA41044FEA430594EA050F08BF8F
:1004300090EA020F1FBF54EA000C55EA020C7FEA53
:10044000645C7FEA655C00F0E2804FEA5454D4EBD0
:100450005555B8BF6D420CDD2C4480EA020281EA9A
:10046000030382EA000083EA010180EA020281EAD2
:100470000303362D88BF30BD11F0004F4FEA013124
:100480004FF4801C4CEA113102D0404261EB410133
:1004900013F0004F4FEA03334CEA133302D05242B9
:1004A00063EB430394EA050F00F0A780A4F1010475
:1004B000D5F1200E0DDB02FA0EFC22FA05F28018AF
:1004C00041F1000103FA0EF2801843FA05F3594195
:1004D0000EE0A5F120050EF1200E012A03FA0EFC14
:1004E00028BF4CF0020C43FA05F3C01851EBE3713E
:1004F00001F0004507D54FF0000EDCF1000C7EEB5B
:1005000000006EEB0101B1F5801F1BD3B1F5001F98
:100510000CD349085FEA30004FEA3C0C04F10104B7
:100520004FEA445212F5800F80F09A80BCF1004FE0
:1005300008BF5FEA500C50F1000041EB045141EA62
:10054000050130BD5FEA4C0C404141EB0101013C2B
:1005500028BFB1F5801FE9D291F0000F04BF01461A
:100560000020B1FA81F308BF2033A3F10B03B3F1EC
:1005700020020CDA0C3208DD02F1140CC2F10C027C
:1005800001FA0CF021FA02F10CE002F11402D8BFDA
:10059000C2F1200C01FA02F120FA0CFCDCBF41EAA6
:1005A0000C019040E41AA2BF01EB0451294330BD75
:1005B0006FEA04041F3C1CDA0C340EDC04F1140452
:1005C000C4F1200220FA04F001FA02F340EA030029
:1005D00021FA04F345EA030130BDC4F10C04C4F16F
:1005E000200220FA02F001FA04F340EA030029464F
:1005F00030BD21FA04F0294630BD94F0000F83F499
:10060000801306BF81F480110134013D4EE77FEA7B
:10061000645C18BF7FEA655C29D094EA050F08BFC7
:1006200090EA020F05D054EA000C04BF19461046A8
:1006300030BD91EA030F1EBF0021002030BD5FEAEC
:10064000545C05D14000494128BF41F0004130BD14
:1006500014F580043CBF01F5801130BD01F0004568
:1006600045F0FE4141F470014FF0000030BD7FEADB
:10067000645C1ABF194610467FEA655C1CBF0B46D6
:10068000024650EA013406BF52EA033591EA030FED
:1006900041F4002130BD00BF90F0000F04BF0021E5
:1006A000704730B54FF4806404F132044FF0000518
:1006B0004FF0000150E700BF90F0000F04BF002191
:1006C000704730B54FF4806404F1320410F00045F7
:1006D00048BF40424FF000013EE700BF42004FEAF2
:1006E000E2014FEA31014FEA02701FBF12F07F436F
:1006F00093F07F4F81F06051704732F07F4208BF26
:10070000704793F07F4F04BF41F40021704730B52C
:100710004FF4607401F0004521F000411CE700BF78
:1007200050EA010208BF704730B54FF000050AE0FB
:1007300050EA010208BF704730B511F0004502D5FC
:10074000404261EB41014FF4806404F132045FEAFE
:10075000915C3FF4D8AE4FF003025FEADC0C18BFA7
:1007600003325FEADC0C18BF033202EBDC02C2F199
:10077000200300FA03FC20FA02F001FA03FE40EA2B
:100780000E0021FA02F11444BDE600BF4FEA410217
:10079000B2F1E04324BFB3F5001CDCF1FE5C0DD9DF
:1007A00001F0004C4FEAC0024CEA5070B2F1004F29
:1007B00040EB830008BF20F00100704711F0804F2C
:1007C00021D113F13872BCBF01F00040704741F4F1
:1007D00080114FEA5252C2F11802C2F1200C10FAF5
:1007E0000CF320FA02F018BF40F001004FEAC123D9
:1007F0004FEAD32303FA0CFC40EA0C0023FA02F37D
:100800004FEA4303CCE77FEA625307D150EA013352
:100810001EBF4FF0FE4040F44000704701F0004022
:1008200040F0FE4040F40000704700BF53B94AB9A1
:10083000002908BF00281CBF4FF0FF314FF0FF30E8
:1008400000F00CB8ADF1080C6DE904CE04F06AFEBE
:10085000DDF804E0DDE9022304B07047704700BF13
:10086000844641EA000313F003036DD1403A41D3BB
:1008700051F8043B40F8043B51F8043B40F8043B7A
:1008800051F8043B40F8043B51F8043B40F8043B6A
:1008900051F8043B40F8043B51F8043B40F8043B5A
:1008A00051F8043B40F8043B51F8043B40F8043B4A
:1008B00051F8043B40F8043B51F8043B40F8043B3A
:1008C00051F8043B40F8043B51F8043B40F8043B2A
:1008D00051F8043B40F8043B51F8043B40F8043B1A
:1008E00051F8043B40F8043B51F8043B40F8043B0A
:1008F000403ABDD2303211D351F8043B40F8043BAA
:1009000051F8043B40F8043B51F8043B40F8043BE9
:1009100051F8043B40F8043B103AEDD20C3205D3B9
:1009200051F8043B40F8043B043AF9D2043208D0B1
:10093000D2071CBF11F8013B00F8013B01D30B8823
:1009400003806046704700BF082A13D38B078DD001
:1009500010F003038AD0C3F10403D21ADB071CBFD3
:1009600011F8013B00F8013B80D331F8023B20F83D
:10097000023B7BE7043AD9D3013A11F8013B00F876
:10098000013BF9D20B7803704B7843708B788370FE
:1009900060467047000000000000000000000000FA
:1009A0000000000000000000000000000000000047
:1009B0000000000000000000000000000000000037
:1009C00030B490F800F020F007016FF0000C10F048
:1009D000070491F820F040F048804FF000046FF0D9
:1009E0000700D1E9002391F840F000F1080082FAF5
:1009F0004CF2A4FA8CF283FA4CF3A2FA8CF34BBBC0
:100A0000D1E9022382FA4CF200F10800A4FA8CF238
:100A100083FA4CF3A2FA8CF3E3B9D1E9042382FA06
:100A20004CF200F10800A4FA8CF283FA4CF3A2FA1B
:100A30008CF37BB9D1E9062301F1200182FA4CF253
:100A400000F10800A4FA8CF283FA4CF3A2FA8CF3BA
:100A5000002BC6D0002A04BF04301A4612BAB2FADC
:100A600082F200EBD20030BC7047D1E9002304F0E1
:100A70000305C4F100004FEAC50514F0040F91F816
:100A800040F00CFA05F562EA05021CBF63EA0503B3
:100A900062464FF00004AAE70000000000000000DA
:100AA00001F0FF01102A2BDB10F0070F08D010F81F
:100AB000013B013A8B422DD010F0070F42B3F6D123
:100AC000F0B441EA012141EA014122F007047FF03C
:100AD00000070023F0E80256083C85EA010586EA93
:100AE000010685FA47F5A3FA87F586FA47F6A5FACF
:100AF00087F68EB9EED1F0BC01F0FF0102F00702DB
:100B000032B110F8013B013A83EA010313B1F8D185
:100B10000020704701387047002D06BF3546033866
:100B2000073815F0010F07D1013015F4807F02BF9F
:100B3000013015F4C03F0130F0BC0138704700BFF0
:100B40000348044B834202D0034B03B1184770475C
:100B50007805002078050020000000000548064BBD
:100B60001B1AD90F01EBA301491002D0034B03B1AB
:100B70001847704778050020780500200000000025
:100B800010B5064C237843B9FFF7DAFF044B13B1D5
:100B90000448AFF300800123237010BD78050020C6
:100BA000000000006871000808B5054B1BB105493D
:100BB0000548AFF30080BDE80840FFF7CFBF00BF96
:100BC000000000007C0500206871000800B583B0BB
:100BD00000220192094B196B41F4001119631B6B40
:100BE00003F400130193019B0521112000F09CFBED
:100BF000112000F0A9FB03B05DF804FB00380240AF
:100C0000034B0360034B0B6080231360704700BFEE
:100C1000940700209405002010B58EB0124C0DF101
:100C20001C0CA646BEE80F00ACE80F009EE80700CB
:100C30008CE80700002107A801F059FF0B4B186052
:100C4000EE4604F11C0CBCE80F00AEE80F009CE877
:100C500007008EE807000021684601F048FF044BBA
:100C600018600EB010BD00BF80710008EC070020B6
:100C7000E80700202DE9F0438DB000240794089484
:100C800009940A940B9401945E4B1A6B42F0100283
:100C90001A631A6B02F010020192019A02941A6B05
:100CA00042F080021A631A6B02F080020292029AEA
:100CB00003941A6B42F004021A631A6B02F00402E6
:100CC0000392039A04941A6B42F001021A631A6B9E
:100CD00002F001020492049A05941A6B42F0020297
:100CE0001A631A6B02F002020592059A06941A6BB7
:100CF00042F008021A631B6B03F008030693069B7D
:100D0000DFF80C91012243F20601484600F078FE1C
:100D1000224648F20801484600F072FEDFF8F480EF
:100D200001223321404600F06BFE22460821404656
:100D300000F066FE344F01220C21384600F060FEC0
:100D400022462021384600F05BFE304E224648F213
:100D50000201304600F054FE01224FF4405130466B
:100D600000F04EFE43F2060307930125089509950E
:100D70000A9507A9484600F04DFD48F2080307937D
:100D8000089509940A9407A9484600F043FD3323C7
:100D90000793089509950A9507A9404600F03AFD82
:100DA00008230793089509940A9407A9404600F080
:100DB00031FD0C230793089509950A9507A9384634
:100DC00000F028FD20230793089509940A9407A9A9
:100DD000384600F01FFD48F2020307930895099476
:100DE0000A9407A9304600F015FD4FF440530793CD
:100DF000089509950A9507A9304600F00BFD0DB03E
:100E0000BDE8F083003802400000024000040240C8
:100E10000010024000080240002300E00133092BCB
:100E2000FCD9704708B50268034B9A4200D008BD50
:100E300000F014FAFBE700BF0008004072B6FEE7BE
:100E400000B595B03022002108A804F057FE002319
:100E5000039304930593069307930193214A116C1E
:100E600041F080511164126C02F080520192019A9B
:100E700002931D4B1A6842F480421A601B6803F407
:100E800080430293029B012308934FF4803309931C
:100E900002230E934FF480020F92192210924FF406
:100EA000A872119212930423139308A800F0AEFDC8
:100EB00098B90F23039302230493002305934FF45F
:100EC000A05306934FF480530793052103A800F025
:100ED000EDFF20B915B05DF804FBFFF7AFFFFFF79A
:100EE000ADFF00BF003802400070004008B500F0C0
:100EF0009BF9FFF7A5FFFFF7BDFEFFF767FE00F0C8
:100F0000EFF8FFF789FE01F0EDFDFEE700B583B0D5
:100F1000002200920D4B596C41F480415964596C88
:100F200001F48041009100990192196C41F08051C7
:100F300019641B6C03F080530193019B0F216FF028
:100F4000010000F0F1F903B05DF804FB0038024045
:100F500030B589B0044600230193214B1A6C42F04E
:100F600004021A641B6C03F004030193019B02A9A1
:100F700003A801F071F8069BCBB901F04DF80346C8
:100F8000184AA2FB03239B0C013B1748174A026037
:100F900040F2E732C26043600023036183608361F3
:100FA00001F0DEF9054630B1284609B030BD01F048
:100FB00033F84300E4E70C4801F06EF805460028DA
:100FC000F2D11E2000F0C0F90F2C01D90125EBE76A
:100FD000002221461E2000F0A7F9054B1C60E3E724
:100FE0000038024083DE1B43F00700200008004069
:100FF00008000020FEE7FEE7FEE7FEE7FEE7704799
:1010000008B5024800F018FB08BD00BF3C080020EE
:1010100008B5024801F088F808BD00BFF0070020BD
:1010200008B5024801F016FC08BD00BF9C0800206E
:1010300070B50C461646002506E0AFF30080214649
:1010400001F8010B01350C46B542F6DB304670BDA8
:1010500070B50C461646002504E014F8010BAFF3FA
:1010600000800135B542F8DB304670BD4FF0FF30EF
:1010700070474FF400534B600020704701207047C9
:101080000020704710B503460C4A0D490D48006812
:1010900040B10C4800680344521A934206D8094AEA
:1010A000136010BD0748084C0460F2E704F0CCFD63
:1010B0000C2303604FF0FF30F3E700BF0000022075
:1010C0000004000038080020F84B0020034AD2F842
:1010D000883043F47003C2F88830704700ED00E0B8
:1010E00008B50A480A4B03604FF4E133436000231C
:1010F0008360C36003610C2242618361C36101F0BC
:1011000053FA00B908BDFFF799FEFBE79C080020E1
:101110000044004030B589B0002303930493059345
:10112000069307930268274B9A4201D009B030BD5D
:1011300004460025019503F5FA331A6C42F4003297
:101140001A641A6C02F400320192019A02951A6B29
:1011500042F008021A631B6B03F008030293029B20
:101160006023039302230493032306930723079327
:1011700003A9154800F04EFB1448154B03604FF0CF
:101180000063436040238360C5604FF48063036164
:1011900045618561C5614FF440330362456200F0EB
:1011A00053F958B9094BA3639C63002205212620FB
:1011B00000F0BAF8262000F0C7F8B7E7FFF73EFEC8
:1011C000F0E700BF00440040000C02403C08002053
:1011D000A0600240DFF834D0FFF778FF0C480D49DB
:1011E0000D4A002302E0D458C4500433C4188C4282
:1011F000F9D30A4A0A4C002301E013600432A242E8
:10120000FBD304F027FDFFF771FE704700000220BA
:1012100000000020780500203472000878050020C6
:10122000F44B0020FEE7000008B50B4B1A6842F4AF
:1012300000721A601A6842F480621A601A6842F4F6
:1012400080721A60032000F05DF80F20FFF780FE27
:10125000FFF75CFE002008BD003C0240034A116815
:10126000034B1B780B441360704700BFE408002059
:1012700004000020014B1868704700BFE4080020FC
:10128000002807DB00F01F02400901239340024AB7
:1012900042F82030704700BF00E100E0002808DB82
:1012A0000901C9B200F1604000F5614080F8001307
:1012B000704700F00F000901C9B2014B1954704783
:1012C00014ED00E000B500F00700C0F1070CBCF120
:1012D000040F28BF4FF0040C031D062B0FD9C31EAB
:1012E0004FF0FF3E0EFA0CF021EA000199400EFA91
:1012F00003FE22EA0E0241EA02005DF804FB00232D
:10130000EEE70000074AD36823F4E0631B041B0CDC
:10131000000200F4E060034343F0BF6343F4003392
:10132000D360704700ED00E010B50446054BD86867
:10133000C0F30220FFF7C6FF01462046FFF7AEFFCD
:1013400010BD00BF00ED00E008B5FFF799FF08BD34
:1013500030B405682C6824F480242C600468636031
:101360008368402B05D0036899600368DA6030BC5D
:10137000704703689A600368D960F8E710B403689F
:10138000D9B210390A4AA2FB01421209094CA25CE7
:10139000C2655F2907D96FF3090304338365806D44
:1013A0005DF8044B70476FF309038365F7E700BFEF
:1013B000ABAAAAAA18720008836A826992B9012BA3
:1013C0000AD0022B02D00BB100207047C36A13F081
:1013D000807F28D100207047C36AB3F1C07F24D03A
:1013E00000207047B2F5005F09D0022B25D9032BEE
:1013F00025D1C36A13F0807F23D100207047032BCF
:1014000003D8DFE803F01404140A00207047C36A0D
:1014100013F0807F0DD100207047C36AB3F1C07F05
:1014200009D000207047012070470120704701203B
:10143000704701207047012070470120704700204D
:10144000704701207047000070B50446FFF712FF97
:10145000002C5BD00546022384F83530002384F845
:1014600034302268136823F00103136023681A687C
:1014700012F0010F0AD0FFF7FDFE431B052BF5D933
:1014800020236365032084F8350070BD1A68204965
:1014900011406268A0680243E06802432069024389
:1014A00060690243A0690243E0690243206A024383
:1014B0000A43616A04291ED01A602668756925F0FE
:1014C0000705636A1D43042B07D1A36A1D43E36A22
:1014D0001BB12046FFF770FF90B975612046FFF7FA
:1014E0004DFFE26D3F239340836000206065012340
:1014F00084F83530C9E7E16A206B01430A43DBE732
:1015000040236365012084F83500BEE70120BCE775
:101510003F8010F038B50446856D90F834000128FE
:101520002BD0012084F8340094F83500C0B2012893
:1015300004D0002384F83430022038BD022084F81F
:101540003500002060652046FFF702FFE26D3F2373
:101550009340AB602268136843F016031360236C5A
:1015600023B12268136843F00803136022681368EC
:1015700043F0010313600020DFE70220DDE770B5D0
:101580000446866DFFF776FE94F83530DBB2022B09
:1015900006D080236365002384F83430012070BDB9
:1015A00005462268136823F0160313602268536906
:1015B00023F080035361236CE3B12268136823F0A6
:1015C000080313602268136823F001031360236883
:1015D0001B6813F0010F11D0FFF74CFE431B052BC6
:1015E000F5D920236365032084F83500002384F8AF
:1015F0003430D4E7A36C002BDFD1E3E7E26D3F2367
:101600009340B360012384F83530002084F834001F
:10161000C5E790F83530DBB2022B03D08023436559
:1016200001207047052380F835300268136823F0E5
:101630000103136000207047F0B583B00446002317
:101640000193724B1D68724BA3FB0535AD0A876D84
:101650003E68C26D08239340334210D003681A6875
:1016600012F0040F0BD01A6822F004021A60C26D47
:1016700008239340BB60436D43F001034365E26D73
:1016800001239340334209D02268526912F0800F3F
:1016900004D0BB60636D43F002036365E26D042315
:1016A0009340334209D02268126812F0020F04D02E
:1016B000BB60636D43F004036365E26D10239340E8
:1016C000334224D02268126812F0080F1FD0BB608A
:1016D00023681A6812F4802F0DD01B6813F4002FB2
:1016E00004D1236C9BB12046984710E0A36C73B1E2
:1016F000204698470BE01A6812F4807F03D11A68DD
:1017000022F008021A60236C0BB120469847E26D64
:1017100020239340334255D02268126812F0100FF4
:1017200050D0BB6094F83530DBB2052B0ED0236867
:101730001A6812F4802F33D01B6813F4002F2AD1BB
:10174000636C002B3ED0204698473BE0226813682C
:1017500023F0160313602268536923F0800353615A
:10176000236CA3B12268136823F008031360E26DB1
:101770003F239340BB60012384F83530002384F875
:101780003430236D002B3FD0204698473CE0A36CBB
:10179000002BE7D1EBE7E36BA3B12046984711E0BC
:1017A0001A6812F4807F09D11A6822F010021A60B8
:1017B000012384F83530002384F83430E36B0BB117
:1017C00020469847636DFBB1636D13F0010F17D08E
:1017D000052384F835302268136823F00103136071
:1017E000019B01330193AB4204D823681B6813F0BB
:1017F000010FF5D1012384F83530002384F834300B
:10180000E36C0BB12046984703B0F0BD0000002008
:10181000B5814E1B00230F2B00F2E98070B582B01A
:1018200065E085684FEA430E032404FA0EF425EAC6
:101830000405CC6804FA0EF42C438460446824EA5E
:1018400002044A68C2F300129A40224342605CE0FC
:10185000DC08083450F8242003F00705AD004FF0F1
:101860000F0E0EFA05FE22EA0E0E0A69AA4042EA9F
:101870000E0240F824205CE0072200E0002202FA79
:101880000EF22A4302345A4D45F82420594A9468EE
:101890006FEA0C0224EA0C054E6816F4801F01D092
:1018A0004CEA0405534CA560E46802EA04054E685E
:1018B00016F4001F01D04CEA04054E4CE560646844
:1018C00002EA04054E6816F4003F01D04CEA040514
:1018D000484C6560246822404D6815F4803F01D073
:1018E0004CEA0402434C226001330F2B7DD80122C5
:1018F0009A400C6804EA020C32EA0404F4D14C6801
:1019000004F00304013C012C8BD94A6802F0030265
:10191000032A09D0C4685D000322AA4024EA020415
:101920008A68AA402243C2604A6802F00302022A7F
:101930008ED004684FEA430E032202FA0EF224EA24
:1019400002044A6802F0030202FA0EF22243026025
:101950004A6812F4403FC7D000220192264A546CD4
:1019600044F480445464526C02F480420192019A1F
:101970009C08A51C1E4A52F8255003F0030E4FEA9E
:101980008E0E0F2202FA0EF225EA02051B4A904241
:101990003FF474AF02F5806290421AD002F5806283
:1019A000904218D002F58062904216D002F5806213
:1019B000904214D002F58062904212D002F580620B
:1019C000904210D002F5806290423FF455AF082259
:1019D00055E7012253E7022251E703224FE7042291
:1019E0004DE705224BE7062249E702B070BD70477C
:1019F00000380140003C0140003802400000024035
:101A00000AB181617047090481617047002800F0C4
:101A1000E08170B582B00446036813F0010F3BD03B
:101A20009F4B9B6803F00C03042B2CD09C4B9B68B2
:101A300003F00C03082B21D06368B3F5803F4FD02F
:101A4000B3F5A02F52D0964B1A6822F480321A6058
:101A50001A6822F480221A606368002B50D0FFF7C6
:101A600009FC05468E4B1B6813F4003F14D1FFF7A9
:101A700001FC401B6428F5D90320B1E1884B5B6869
:101A800013F4800FD8D0864B1B6813F4003F03D0AB
:101A90006368002B00F09F81236813F0020F54D07D
:101AA0007F4B9B6813F00C0F3ED07D4B9B6803F07F
:101AB0000C03082B33D0E368002B68D0794B01224C
:101AC0001A60FFF7D7FB0546754B1B6813F0020F32
:101AD00054D1FFF7CFFB401B0228F5D903207FE14B
:101AE0006F4A136843F480331360B5E76C4B1A6890
:101AF00042F480221A601A6842F480321A60ABE71E
:101B0000FFF7B8FB0546664B1B6813F4003FC3D0D4
:101B1000FFF7B0FB401B6428F5D9032060E1604B60
:101B20005B6813F4800FC6D15D4B1B6813F0020F86
:101B300003D0E368012B40F05081594A136823F029
:101B4000F803216943EAC1031360236813F0080F07
:101B500042D063696BB3534B0122C3F8802EFFF769
:101B600089FB05464E4B5B6F13F0020F34D1FFF734
:101B700081FB401B0228F5D9032031E1484A136854
:101B800023F0F803216943EAC1031360DDE7454B05
:101B900000221A60FFF76EFB0546414B1B6813F0ED
:101BA000020FD2D0FFF766FB401B0228F5D90320B5
:101BB00016E13C4B0022C3F8802EFFF75BFB054685
:101BC000374B5B6F13F0020F06D0FFF753FB401B40
:101BD0000228F5D9032003E1236813F0040F77D01E
:101BE0002F4B1B6C13F0805F33D1002301932C4BE0
:101BF0001A6C42F080521A641B6C03F080530193FC
:101C0000019B0125284B1B6813F4807F23D0A36818
:101C1000012B34D0052B38D0214B1A6F22F0010252
:101C20001A671A6F22F004021A67A368002B3DD0CE
:101C3000FFF720FB06461A4B1B6F13F0020F46D12D
:101C4000FFF718FB801B41F288339842F3D9032039
:101C5000C6E00025D6E7144A136843F48073136086
:101C6000FFF708FB0646104B1B6813F4807FCED1AC
:101C7000FFF700FB801B0228F5D90320B0E0084ADB
:101C8000136F43F001031367CFE7054B1A6F42F060
:101C900004021A671A6F42F001021A67C5E700BF13
:101CA000003802400000474200700040FFF7E2FAAF
:101CB0000646524B1B6F13F0020F08D0FFF7DAFAFB
:101CC000801B41F288339842F3D9032088E0EDB9B4
:101CD000A369002B00F08380484A926802F00C024E
:101CE000082A51D0022B17D0454B00221A66FFF765
:101CF000C1FA0446414B1B6813F0007F42D0FFF746
:101D0000B9FA001B0228F5D9032069E03B4A136C9D
:101D100023F080531364DBE7394B00221A66FFF788
:101D2000A9FA0546354B1B6813F0007F06D0FFF774
:101D3000A1FA401B0228F5D9032051E0E369226A89
:101D40001343626A43EA8213A26A5208013A43EAE1
:101D50000243E26A43EA0263284A5360284B0122A5
:101D60001A66FFF787FA0446244B1B6813F0007FBE
:101D700006D1FFF77FFA001B0228F5D903202FE0D8
:101D800000202DE000202BE0012B2BD01B4B5B68AB
:101D900003F48001E269914226D103F03F02216AF7
:101DA0008A4223D1616A47F6C0721A40B2EB811FA2
:101DB0001ED103F44031A26A5208013AB1EB024F3E
:101DC00018D103F07063E26AB3EB026F14D1002004
:101DD00006E001207047012002E0012000E0002021
:101DE00002B070BD0120FBE70120F9E70120F7E711
:101DF0000120F5E70120F3E70120F1E70038024078
:101E00000000474208B5264B9B6803F00C03042BE7
:101E100041D0082B41D1224B5A6802F03F025B6847
:101E200013F4800F12D01E4B5968C1F388111D485E
:101E30000023A1FB0001FEF7F9FC194B5B68C3F31B
:101E4000014301335B00B0FBF3F008BD144B58684D
:101E5000C0F388104FEA401CBCEB000C6EEB0E0E7A
:101E60004FEA8E1343EA9C634FEA8C11B1EB0C01ED
:101E700063EB0E03DB0043EA5173C90011EB000C66
:101E800043F10003990200234FEA8C2041EA9C5160
:101E9000FEF7CCFCD1E70348D7E70348D5E700BFFE
:101EA0000038024040787D010024F400002800F052
:101EB0009B8070B50D4604464F4B1B6803F007032B
:101EC0008B4208D2CBB24C4A1370136803F007035D
:101ED0008B4240F08B80236813F0020F17D013F071
:101EE000040F04D0454A936843F4E0539360236899
:101EF00013F0080F04D0414A936843F460439360A1
:101F00003E4A936823F0F003A1680B439360236873
:101F100013F0010F32D06368012B21D09A1E012AE1
:101F200025D9364A126812F0020F61D033498A6807
:101F300022F0030213438B60FFF79CF906462F4BF8
:101F40009B6803F00C036268B3EB820F16D0FFF7B7
:101F500091F9801B41F288339842F0D9032042E086
:101F6000264A126812F4003FE0D101203BE0234AE8
:101F7000126812F0007FD9D1012034E01E4B1B689B
:101F800003F00703AB4207D9EAB21B4B1A701B6878
:101F900003F00703AB422DD1236813F0040F06D0E2
:101FA000164A936823F4E053E1680B439360236877
:101FB00013F0080F07D0114A936823F46043216996
:101FC00043EAC1039360FFF71DFF0C4B9B68C3F30B
:101FD00003130B4AD35CD8400A4B18600A4B1868AD
:101FE000FEF7B6FF002070BD012070470120FAE720
:101FF0000120F8E70120F6E7003C024000380240EB
:10200000087200080000002008000020014B18683A
:10201000704700BF0000002008B5FFF7F7FF044B32
:102020009B68C3F38223034AD35CD84008BD00BF3A
:10203000003802400072000808B5FFF7E7FF044BC4
:102040009B68C3F34233034AD35CD84008BD00BF4A
:1020500000380240007200080F2303600B4B9A689F
:1020600002F0030242609A6802F0F00282609A680D
:1020700002F4E052C2609B68DB0803F4E0530361A2
:10208000034B1B6803F007030B60704700380240E6
:10209000003C02407047000090F83D30DBB2012B5D
:1020A00037D1022380F83D300268D36843F0010342
:1020B000D3600368194A934220D0B3F1804F1DD0FA
:1020C000A2F57C42934219D002F58062934215D06A
:1020D00002F58062934211D002F5784293420DD00E
:1020E00002F57052934209D0A2F59432934205D082
:1020F0001A6842F001021A60002070479A6802F0E4
:102100000702062A07D01A6842F001021A6000206E
:102110007047012070470020704700BF0000014059
:10212000704770477047704770B504460368DE68B3
:102130001D6915F0020F10D016F0020F0DD06FF0D0
:1021400002021A610123037703689B6913F0030FEE
:102150005ED0FFF7E6FF0023237715F0040F12D0BF
:1021600016F0040F0FD023686FF004021A610223E7
:10217000237723689B6913F4407F4FD02046FFF7F5
:10218000D0FF0023237715F0080F12D016F0080FA8
:102190000FD023686FF008021A61042323772368A5
:1021A000DB6913F0030F40D02046FFF7BAFF00238E
:1021B000237715F0100F12D016F0100F0FD02368F0
:1021C0006FF010021A61082323772368DB6913F488
:1021D000407F31D02046FFF7A4FF0023237715F07E
:1021E000010F02D016F0010F2DD115F0800F02D093
:1021F00016F0800F2FD115F0400F02D016F0400FCF
:1022000031D115F0200F02D016F0200F33D170BD60
:10221000FFF786FF2046FFF785FF9CE72046FFF784
:102220007FFF2046FFF77EFFABE72046FFF778FFF2
:102230002046FFF777FFBAE72046FFF771FF2046F9
:10224000FFF770FFC9E723686FF001021A612046AB
:10225000FEF7E8FDC9E723686FF080021A612046A7
:1022600000F0ABF8C7E723686FF040021A61204620
:10227000FFF759FFC5E723686FF020021A61204677
:1022800000F09AF8C3E700000368344A904212D085
:10229000B0F1804F0FD0A2F57C4290420BD002F5F6
:1022A0008062904207D002F58062904203D002F52E
:1022B0007842904203D123F070034A681343274ABF
:1022C00090422AD0B0F1804F27D0A2F57C429042B4
:1022D00023D002F5806290421FD002F580629042C6
:1022E0001BD002F57842904217D002F5705290420E
:1022F00013D002F5806290420FD002F580629042C6
:102300000BD0A2F59832904207D002F5806290423D
:1023100003D002F58062904203D123F44073CA686F
:10232000134323F080034A69134303608B68C3623D
:102330000B688362094B984203D003F5806398428F
:1023400001D10B69036301234361036913F0010F9A
:1023500003D0036923F001030361704700000140CB
:1023600040B310B5044690F83D30F3B1022384F831
:102370003D30214651F8040BFFF786FF012384F816
:10238000463084F83E3084F83F3084F8403084F89A
:10239000413084F8423084F8433084F8443084F883
:1023A000453084F83D30002010BD80F83C30FFF708
:1023B00071FEDBE70120704770477047026802F149
:1023C0000C0353E8003F23F0C0030C3242E8003115
:1023D0000029F3D1202380F841307047026802F1D0
:1023E0000C0353E8003F23F490730C3242E80031B1
:1023F0000029F3D1026802F1140353E8003F23F0EF
:102400000103143242E800310029F3D1036B012BA0
:1024100005D0202380F84230002303637047026810
:1024200002F10C0353E8003F23F010030C3242E8A2
:1024300000310029F3D1ECE790F84130DBB2212BD9
:1024400001D0022070478368B3F5805F17D0036A1C
:102450005A1C02621A7803685A60C38C9BB2013B13
:102460009BB2C3844BB90268D36823F08003D36066
:102470000268D36843F04003D360002070470369CB
:10248000002BE4D1036A1B880268C3F3080353607E
:10249000036A02330362E0E710B504460268136979
:1024A00023F44053C1680B431361836802691A43E4
:1024B00043691A43C3691A430168CB6823F416437E
:1024C00023F00C031343CB600268536923F4407379
:1024D00081690B4353610368314A934206D002F588
:1024E0008062934202D0FFF797FD01E0FFF7A4FD61
:1024F000E369B3F5004F29D00021031849411B18A7
:1025000041F10001C90041EA5371DB00181863680A
:102510004FEA83024FEA937341F10001FEF786F917
:10252000204AA2FB00314909642303FB11031B016C
:102530003233A2FB03235B0903F0F00202EB01122A
:1025400003F00F03216813448B6010BD00230218B1
:1025500043EB0301121841F10001C90041EA527135
:10256000D200101841F10001626892185B41FEF739
:102570005DF90C4AA2FB00314909642303FB1103F6
:10258000DB003233A2FB03235B095A0002F4F8722A
:1025900002EB011203F00703216813448B60D4E7B8
:1025A000001001401F85EB5160B310B5044690F850
:1025B000413013B3242384F841302268D36823F4D4
:1025C0000053D3602046FFF767FF2268136923F4A6
:1025D000904313612268536923F02A0353612268F0
:1025E000D36843F40053D36000206064202384F850
:1025F000413084F84230606310BD80F84030FEF70F
:1026000089FDD7E70120704738B5134690F841207F
:10261000D2B2202A2FD1044600292ED00BB9012096
:1026200038BD01628384C38400224264212084F87F
:102630004100A06B124DC563A06B124D0564A06BE9
:10264000114DC564A06B026522680432A06BFEF7D1
:1026500061FF23686FF040021A60226802F11403E0
:1026600053E8003F43F08003143242E80031002970
:10267000F3D10020D4E70220D2E70120D0E700BF49
:102680008D260008F52600080327000808B5034634
:10269000806B1B681B6813F4807F1AD10023C384EE
:1026A000026802F1140353E8003F23F08003143260
:1026B00042E800310029F3D1026802F10C0353E82B
:1026C000003F43F040030C3242E800310029F3D1CF
:1026D00008BD01F031FEFBE708B50168CA6822F0C9
:1026E0004002CA60202280F8412001F025FE00202F
:1026F00008BD704708B5806BFFF7FBFF08BD70474A
:10270000704710B5846B23685A6994F84130DBB286
:10271000212B10D023685A6902F0400294F842300D
:10272000DBB2222B11D0636C43F0100363642046AC
:10273000FFF7E6FF10BD02F08002002AEAD0002376
:10274000E3842046FFF73AFEE4E7002AEBD00023BB
:10275000E3852046FFF742FEE5E708B5806B0023DE
:10276000C385C384FFF7CCFF08BD704790F84230A3
:10277000DBB2222B69D18368B3F5805F4FD0826AC8
:10278000B3F5805F04D0002B56D10369002B53D1E1
:1027900003685B681370836A01338362C38D9BB2E5
:1027A000013B9BB2C385002B51D100B583B00268B9
:1027B000D36823F02003D3600268D36823F48073C6
:1027C000D3600268536923F001035361202380F82A
:1027D000423000234363036B012B33D10023036397
:1027E000026802F10C0353E8003F23F010030C329F
:1027F00042E800310029F3D103681A6812F0100F83
:1028000006D0002201921A6801925B680193019B35
:10281000818DFFF7AAFF002003B05DF804FB026979
:10282000002AACD1826A03685B68C3F30803138093
:10283000836A02338362B1E703685B6803F07F0356
:102840001370A8E7FFF75BFFE5E702207047002061
:102850007047000010B582B0044602681368D06863
:10286000516913F00F0F09D113F0200F0CD010F0A5
:10287000200F09D02046FFF779FF16E011F0010183
:1028800015D110F4907F12D1216B012979D013F06A
:10289000800F03D010F0800F40F0148113F0400F30
:1028A00003D010F0400F40F0118102B010BD13F0C2
:1028B000010F06D010F4807F03D0626C42F0010259
:1028C000626413F0040F04D019B1626C42F002028A
:1028D000626413F0020F04D019B1626C42F004027A
:1028E000626413F0080F07D010F0200F00D119B167
:1028F000626C42F008026264626C002AD5D013F068
:10290000200F02D010F0200F29D123685B6903F05B
:102910004003626C12F0080F00D163B32046FFF74A
:102920005DFD23685B6913F0400F20D0226802F13F
:10293000140353E8003F23F04003143242E800310F
:102940000029F3D1E36B73B1624A1A65E06BFEF7BD
:1029500060FE0028A9D0E06B036D9847A5E72046EC
:10296000FFF704FFD1E72046FFF7CAFE9DE72046A8
:10297000FFF7C6FE99E72046FFF7C2FE0023636417
:1029800093E713F0100F82D010F0100F3FF47FAFD9
:10299000002301931368019353680193019B5369CA
:1029A00013F0400F52D0E26B13685B689BB2002BB0
:1029B0003FF47BAFA18D99427FF677AFE385D36972
:1029C000B3F5807F37D0226802F10C0353E8003F53
:1029D00023F480730C3242E800310029F3D12268DD
:1029E00002F1140353E8003F23F00103143242E8DC
:1029F00000310029F3D1226802F1140353E8003FAB
:102A000023F04003143242E800310029F3D120239F
:102A100084F8423000232363226802F10C0353E858
:102A2000003F23F010030C3242E800310029F3D1BB
:102A3000E06BFEF7A4FD02236363A18DE38D9BB2DF
:102A4000C91A89B22046FFF790FE2EE7A18DE38DCB
:102A50009BB2C91A89B2E38D9BB2002B3FF425AF1C
:102A600000293FF422AF226802F10C0353E8003F33
:102A700023F490730C3242E800300028F3D122682E
:102A800002F1140353E8003F23F00103143242E83B
:102A900000300028F3D1202384F842300023236340
:102AA000226802F10C0353E8003F23F010030C32BC
:102AB00042E800300028F3D1022363632046FFF789
:102AC00054FEF2E62046FFF7B7FCEEE62046FFF79D
:102AD00003FEEAE65B270008842801D00330704734
:102AE0000020704708B500F0B3FF002008BD2DE9B5
:102AF000F04387B00E464469C4B18569B5B14768F3
:102B0000D0F80080D0F81090B0F90800FFF7E4FF8B
:102B100002950194009033464A464146384600F0FB
:102B200029FF0590059807B0BDE8F0834468056863
:102B30000769B0F90800FFF7CFFF05AB01930090DC
:102B40003346BAB22946204600F04FFF0128E9D0AB
:102B50000020E8E700F1080343604FF0FF32826095
:102B6000C360036100230360704700230361704763
:102B700043684B609A688A60516099600861036895
:102B800001330360704730B40D68B5F1FF3F11D0D9
:102B900000F108031C465B681A68AA42FAD9636808
:102BA0004B6099608C606160086103680133036069
:102BB00030BC70470469F2E70369416882688A6043
:102BC000416851605A68824206D0002202611A6848
:102BD000013A1A601868704782685A60F5E7000089
:102BE00082B0002301930D4B1B68B3F1FF3F08D067
:102BF0004FF0500383F31188BFF36F8FBFF34F8FF4
:102C0000FEE74FF0500383F31188BFF36F8FBFF3DC
:102C10004F8F019B002BFCD002B070470C000020AE
:102C200008480068006880F308884FF0000080F3CF
:102C3000148862B661B6BFF34F8FBFF36F8F00DFAA
:102C400000BF000008ED00E0DFF80C00016841F46F
:102C5000700101607047000088ED00E04FF0807364
:102C600040F8043C21F0010140F8081C054B40F8F5
:102C70000C3C40F8202C6FF0020340F8243C443810
:102C8000704700BFE12B00080000000000000000BA
:102C9000074B19680868B0E8F04F80F30988BFF364
:102CA0006F8F4FF0000080F311887047AFF3008002
:102CB000384600204FF0500383F31188BFF36F8F25
:102CC000BFF34F8F0B4A136801331360012B00D001
:102CD00070474FF0E023D3F8043D13F0FF0FF7D017
:102CE0004FF0500383F31188BFF36F8FBFF34F8F03
:102CF000FEE700BF0C000020094B1B6843B94FF0F2
:102D0000500383F31188BFF36F8FBFF34F8FFEE73C
:102D1000013B034A13600BB983F31188704700BF6E
:102D20000C00002000000000000000000000000077
:102D3000EFF30980BFF36F8F154B1A681EF0100F69
:102D400008BF20ED108A20E9F04F10602DE909003E
:102D50004FF0500080F31188BFF34F8FBFF36F8F98
:102D600000F0E6FF4FF0000080F3118809BC1968FD
:102D70000868B0E8F04F1EF0100F08BFB0EC108AE2
:102D800080F30988BFF36F8F704700BFAFF30080F7
:102D90003846002008B54FF0500383F31188BFF385
:102DA0006F8FBFF34F8F00F095FE28B14FF0E023F7
:102DB0004FF08052C3F8042D002383F3118808BD1F
:102DC0004FF0E022002313619361054B1B68054916
:102DD000A1FB03139B09013B536107231361704758
:102DE00000000020D34D62104FF0E023D3F8002DF7
:102DF0003D4B9A421CD04FF0E023D3F8002D3B4BC3
:102E00009A421ED030B583B0394B1A78D2B20192B3
:102E1000FF221A701B78DBB28DF803309DF8033067
:102E200003F05003334A1370334B07221A601BE040
:102E30004FF0500383F31188BFF36F8FBFF34F8FB1
:102E4000FEE74FF0500383F31188BFF36F8FBFF39A
:102E50004F8FFEE7284A1368013B13609DF803304B
:102E60005B00DBB28DF803309DF8033013F0800F68
:102E7000F0D1214B1B68032B08D04FF0500383F394
:102E80001188BFF36F8FBFF34F8FFEE71B021A4A03
:102E9000136003F4E0631360019BDBB2144A137008
:102EA0004FF0E024D4F8203D43F47003C4F8203DF3
:102EB000D4F8203D43F07043C4F8203DFFF780FF75
:102EC00000250E4B1D60FFF7BFFED4F8343F43F0E2
:102ED0004043C4F8343FFFF7A3FE00F029FFFFF79B
:102EE0007FFE284603B030BD71C20F4170C20F4152
:102EF00000E400E0EC080020E80800200C000020BE
:102F0000124A12F0070F1ED0D11D21F00701C1F5A2
:102F1000705313440A460E48026000214160134476
:102F2000083B23F007030B48036059601960991AA6
:102F300051601360084B1960084B1960084B4FF043
:102F400000421A6070474FF47053E4E71009002004
:102F50000809002004090020FC08002000090020C6
:102F6000F0080020164B1A461B688342FBD35168B9
:102F700002EB010C844509D0416800EB010C63456C
:102F800009D00360904219D0106070474068014436
:102F900051601046F0E710B40A4C2468A3420BD0ED
:102FA0005B681944416013681B680360904200D05D
:102FB00010605DF8044B70470460F7E7704700BF8E
:102FC000080900200409002038B5044600F07AFD05
:102FD000384B1B68B3B1384B1B681C4250D1002CD6
:102FE00050D004F1080214F0070F02D022F00702BB
:102FF0000832002A55D0314B1B68934253D33049D5
:103000000C6804E0FFF77CFFE5E721461C46636897
:10301000934202D22368002BF7D1264B1B68A342B0
:1030200043D00D68083523680B6063689B1A102B2A
:1030300010D9A01810F0070F08D04FF0500383F3F9
:103040001188BFF36F8FBFF34F8FFEE7436062605D
:10305000FFF788FF626819490B689B1A0B601949D2
:1030600009688B4201D217490B60134B1B6813434D
:10307000636000232360144A13680133136002E085
:10308000002500E0002500F0B1FD15F0070F0ED07F
:103090004FF0500383F31188BFF36F8FBFF34F8F4F
:1030A000FEE70025EFE70025EDE70025EBE72846E2
:1030B00038BD00BF04090020F008002000090020EE
:1030C00008090020FC080020F8080020002834D05F
:1030D00038B50446A0F1080550F8043C174A1268B8
:1030E000134208D14FF0500383F31188BFF36F8F61
:1030F000BFF34F8FFEE750F8081C41B14FF050036B
:1031000083F31188BFF36F8FBFF34F8FFEE723EA7E
:10311000020340F8043C00F0D5FC54F8041C084AB3
:1031200013680B4413602846FFF71CFF054A136819
:103130000133136000F05AFD38BD7047F0080020DD
:1031400000090020F408002010B50446FFF7B2FD86
:10315000A26BE36B9A4204D00024FFF7CDFD20461A
:1031600010BD0124F9E710B50446FFF7A3FDA36BDA
:1031700023B90124FFF7C0FD204610BD0024F9E764
:1031800070B504461546866B026C5AB903681BB1CC
:1031900000200136A66370BD806800F0D7FE0023D2
:1031A000A360F6E76DB94068FDF75AFB6368226CCF
:1031B00013446360A268934219D32368636028466E
:1031C000E7E7C068FDF74CFBE368226C51429B1AAD
:1031D000E3602268934202D2A3680B44E360022DAD
:1031E00001D00020D5E726B1013E0020D1E72846D6
:1031F000CFE70020CDE70346026C6AB110B5084660
:10320000D9681144D9609C68A14201D31968D9607A
:10321000D968FDF725FB10BD704738B50546FFF7A7
:1032200049FD95F8454064B201E0013C64B2002CD0
:103230000ADD6B6A43B105F1240000F0DDFD0028D2
:10324000F3D000F06DFEF0E7FF2385F84530FFF77F
:1032500053FDFFF72FFD95F8444064B201E0013CB7
:1032600064B2002C0ADD2B6943B105F1100000F0B7
:10327000C3FD0028F3D000F053FEF0E7FF2385F8EC
:103280004430FFF739FD38BD38B5E0B10D4604468E
:10329000FFF710FD2368E26B216C01FB0230A06098
:1032A0000020A0636360013A02FB0133E360FF2367
:1032B00084F8443084F84530FDB9236963B9FFF7D9
:1032C0001BFD012038BD4FF0500383F31188BFF37D
:1032D0006F8FBFF34F8FFEE704F1100000F08CFDFD
:1032E0000028ECD04FF0E0234FF08052C3F8042DBB
:1032F000BFF34F8FBFF36F8FE1E704F11000FFF7CB
:1033000029FC04F12400FFF725FCD8E710B503469B
:1033100002980C4631B90060C36304640121FFF7D1
:10332000B3FF10BD0260F7E740B94FF0500383F3DD
:103330001188BFF36F8FBFF34F8FFEE7F0B583B0F7
:103340000D461446064601FB00F04830FFF73CFEF0
:10335000074650B1002380F846300090234600F124
:10336000480229463046FFF7D1FF384603B0F0BD8A
:10337000F0B585B0019288B10F461D460446B1B143
:10338000022D20D1E36B012B1DD04FF0500383F3AE
:103390001188BFF36F8FBFF34F8FFEE74FF05003DD
:1033A00083F31188BFF36F8FBFF34F8FFEE7036C7A
:1033B000002BE5D04FF0500383F31188BFF36F8FDC
:1033C000BFF34F8FFEE700F0B1FD064658B9019BF1
:1033D000002B48D04FF0500383F31188BFF36F8F59
:1033E000BFF34F8FFEE700263DE02A4639462046D0
:1033F000FFF7C6FE636A7BB948B14FF0E0234FF098
:103400008052C3F8042DBFF34F8FBFF36F8FFFF7C8
:1034100073FC012005B0F0BD04F1240000F0ECFCC9
:103420000028F4D04FF0E0234FF08052C3F8042D71
:10343000BFF34F8FBFF36F8FE9E7FFF75DFC00200D
:10344000E8E702A800F01EFD012619E0002384F839
:10345000443021E0002384F8453023E02046FFF784
:10346000DCFE00F0C3FBFFF725FCA26BE36B9A4286
:10347000BBD3022DB9D0019B002BDED0002EE0D0B3
:10348000FFF73AFC00F01EFBFFF714FC94F8442011
:1034900052B2B2F1FF3FD9D094F8452052B2B2F106
:1034A000FF3FD7D0FFF728FC01A902A800F0F6FCE7
:1034B000D8B92046FFF748FE0028CFD0019904F183
:1034C000100000F081FC2046FFF7A7FE00F08EFB05
:1034D0000028C8D14FF0E0234FF08052C3F8042DEC
:1034E000BFF34F8FBFF36F8FBDE72046FFF795FE09
:1034F00000F07CFB00208DE7F0B585B0019290B123
:103500000F460446C1B100F011FD064600BB019B09
:10351000002B5ED04FF0500383F31188BFF36F8F01
:10352000BFF34F8FFEE74FF0500383F31188BFF3D3
:103530006F8FBFF34F8FFEE7036C002BE3D04FF08C
:10354000500383F31188BFF36F8FBFF34F8FFEE7F4
:1035500000263EE039462046FFF74DFE013DA563BB
:10356000236923B9FFF7C8FB012005B0F0BD04F1C2
:10357000100000F041FC0028F4D04FF0E0234FF0A1
:103580008052C3F8042DBFF34F8FBFF36F8FE9E76D
:10359000FFF7B2FB0020E8E702A800F073FC012669
:1035A00021E0002384F8443029E0002384F84530EA
:1035B0002BE02046FFF731FE00F018FB09E0204623
:1035C000FFF72BFE00F012FB2046FFF7CCFD002892
:1035D0003FD1FFF76FFBA56B002DBBD1019B002BEB
:1035E000D6D0002ED8D0FFF787FB00F06BFAFFF79C
:1035F00061FB94F844305BB2B3F1FF3FD1D094F853
:1036000045305BB2B3F1FF3FCFD0FFF775FB01A9A7
:1036100002A800F043FC0028D1D12046FFF7A3FD0B
:103620000028C6D0019904F1240000F0CDFB20460B
:10363000FFF7F3FD00F0DAFA0028CAD14FF0E023DB
:103640004FF08052C3F8042DBFF34F8FBFF36F8F3D
:10365000BFE7002089E70000084B1B681B6823B9FF
:10366000074B4FF0FF321A607047044B1B68DB6852
:10367000DB685A68024B1A60704700BF8045002023
:10368000184500202DE9F04707469846089DDDF8CB
:1036900024900A9C266B02F18042013A06EB8206D6
:1036A00026F00706C1B308464FF0000CBCF10F0F1F
:1036B00009D810F80C2004EB0C0383F8342012B165
:1036C0000CF1010CF2E7002384F84330062D00D9F9
:1036D0000625E56265644FF0000AC4F848A0201D85
:1036E000FFF743FA04F11800FFF73FFA2461C5F130
:1036F0000705A5616462C4F84CA084F850A0424656
:1037000039463046FFF7AAFA2060B9F1000F01D020
:10371000C9F80040BDE8F087002384F83430D5E7CD
:1037200038B5002407E004EB840293000E481844E7
:10373000FFF710FA0134062CF5D90C4D2846FFF797
:1037400009FA0B4C2046FFF705FA0A48FFF702FA80
:103750000948FFF7FFF90948FFF7FCF9084B1D601E
:10376000084B1C6038BD00BFAC45002098450020C8
:103770008445002068450020544500203C45002039
:10378000804500207C45002010B50446FFF792FAE2
:10379000214A136801331360204B1B685BB1204B37
:1037A0001B686BB91D4B1B68DA6AE36A9A4207D83B
:1037B0001A4B1C6004E0194B1C601368012B28D0C5
:1037C000184A136801331360E06A01238340164AE4
:1037D00011680B43136000EB8000211D134B03EBBA
:1037E0008000FFF7C5F9FFF787FA0D4B1B687BB127
:1037F0000A4B1B68DA6AE36A9A4209D24FF0E02367
:103800004FF08052C3F8042DBFF34F8FBFF36F8F7B
:1038100010BDFFF785FFD3E738450020384600206C
:103820002C4500201C45002030450020AC450020E0
:1038300010B5044690F8513063B1012B11D0022B22
:103840000ED04FF0500383F31188BFF36F8FBFF397
:103850004F8FFEE7006BFFF739FC2046FFF736FC81
:1038600010BDFFF733FCFBE70F4B1B68D3B110B55E
:10387000FFF720FA0D4BDB68DC68201DFFF79CF991
:103880000B4A1368013B1360074A1368013B13603E
:10389000FFF732FA2046FFF7CBFF034B1B68002BE4
:1038A000E6D110BD704700BF5045002054450020B0
:1038B0003845002008B5FFF7D7FF074B1B68012BE1
:1038C000F9D94FF0E0234FF08052C3F8042DBFF335
:1038D0004F8FBFF36F8FEEE7AC45002070B5044605
:1038E0000D461D4B1E681D4B18680430FFF764F928
:1038F00048B91A4B1B68DB6A01229A4018490B68C9
:1039000023EA02030B60B4F1FF3F0DD03444134BA4
:103910001B685C60A64210D9124B18680F4B1968DF
:103920000431FFF730F970BD002DEFD00B4B196853
:1039300004310D48FFF71CF9F5E70C4B1868074BED
:1039400019680431FFF71FF9094B1B68A342EAD934
:10395000074B1C60E7E700BF3445002038460020D5
:10396000304500207C4500203C450020804500205B
:103970001845002030B587B00B9C7CB10C9DB5B1CB
:1039800054250495049D542D1AD04FF0500383F311
:103990001188BFF36F8FBFF34F8FFEE74FF05003D7
:1039A00083F31188BFF36F8FBFF34F8FFEE74FF0A4
:1039B000500383F31188BFF36F8FBFF34F8FFEE780
:1039C000049D0C9D2C63022485F85140002403942F
:1039D000029505AC01940A9C0094FFF753FE0C98E5
:1039E000FFF7D2FE059807B030BD2DE9F04385B052
:1039F0000746884614461E469000FFF7E5FA08B3CE
:103A000081465420FFF7E0FA0546A8B1C0F830908F
:103A1000002380F85130039302900D9B01930C9B7F
:103A200000933346224641463846FFF72BFE284690
:103A3000FFF7AAFE012007E04846FFF747FB4FF0DB
:103A4000FF3001E04FF0FF3005B0BDE8F08300002B
:103A500010B588B000240594069407AA06A905A805
:103A6000FDF7CEF8059B0293069B01930094234635
:103A7000079A0E490E48FFF77DFF0E4B186090B174
:103A80004FF0500383F31188BFF36F8FBFF34F8F55
:103A9000094B4FF0FF321A60084B01221A60084BA5
:103AA0001C60FFF7A1F908B010BD00BFD471000879
:103AB000B538000814450020184500202C4500208A
:103AC00034450020024A136801331360704700BF79
:103AD00010450020F8B53A4B1B68002B69D1394BD3
:103AE0001D6801351D60C5B9374B1B681B6843B1A4
:103AF0004FF0500383F31188BFF36F8FBFF34F8FE5
:103B0000FEE7314A1168314B186810601960304A7D
:103B1000136801331360FFF79FFD2E4B1B68AB4208
:103B20003DD900272C4B1B68DB6A03EB83039A000B
:103B30002A4B9B58012B00D90127294B1B68002BCE
:103B40003CD001273AE001271F4B1B681B6843B399
:103B50001D4B1B68DB68DC6863689D4226D3261D0D
:103B60003046FFF729F8A36A1BB104F11800FFF7EC
:103B700023F8E36A01229A401A49086802430A605E
:103B800003EB83039A00314614481044FEF7F0FF1C
:103B9000E26A114B1B68DB6A9A42D4D2D4E7002751
:103BA000D2E70C4B4FF0FF321A60BBE7094A1360B3
:103BB000B8E70D4A13680133136000273846F8BD93
:103BC0001045002034450020804500207C45002021
:103BD000204500201845002038460020AC45002034
:103BE00024450020304500202845002038B5354BBD
:103BF0001B6843B94FF0500383F31188BFF36F8FF5
:103C0000BFF34F8FFEE7FFF755F82E4B1A68013AC6
:103C10001A601B68002B4FD12B4B1B680BB900247B
:103C20004BE00024294B1B681BB3284BDB68DC6886
:103C300004F11800FEF7C0FF251D2846FEF7BCFF63
:103C4000E06A01238340224A11680B43136000EBB2
:103C5000800029461F4B03EB8000FEF789FFE26AD4
:103C60001D4B1B68DB6A9A42DCD31C4B01221A6095
:103C7000D8E70CB1FFF7F0FC194B1C6884B9174B5F
:103C80001C68D4B14FF0E0234FF08052C3F8042DEC
:103C9000BFF34F8FBFF36F8F01240EE0013C07D0BD
:103CA000FFF718FF0028F9D00C4B01221A60F5E746
:103CB0000B4B00221A60E2E70024FFF71DF82046B4
:103CC00038BD00BF10450020384500206845002061
:103CD00030450020AC450020384600202445002017
:103CE0002845002010B5A8B10446104B1B6843B10D
:103CF0004FF0500383F31188BFF36F8FBFF34F8FE3
:103D0000FEE7FFF7DFFE00212046FFF7E7FDFFF7A4
:103D10006DFF48B94FF0E0234FF08052C3F8042DF7
:103D2000BFF34F8FBFF36F8F10BD00BF1045002052
:103D3000204B1B681BB1204B01221A6070471E4BA1
:103D400000221A601D4B1B68B3FA83F3DBB2C3F188
:103D50001F0303EB83018A0019498A5842B94FF0C7
:103D6000500383F31188BFF36F8FBFF34F8FFEE7CC
:103D7000134803EB83018A0002445168496851608B
:103D800003EB830C4FEA8C0208320244914209D0C3
:103D900003EB83039A000A4B13445B68DA68094B10
:103DA0001A607047486862469100054A0A445060AC
:103DB000EEE700BF104500202445002030450020DC
:103DC000AC4500203846002058B110B50C46094AD1
:103DD00011681831FEF7D7FE01212046FFF77EFD5E
:103DE00010BD4FF0500383F31188BFF36F8FBFF303
:103DF0004F8FFEE73846002038B5C368DC6824B32F
:103E000004F118052846FEF7D7FE184B1B682BBB9C
:103E1000251D2846FEF7D0FEE06A01238340144AA0
:103E200011680B43136000EB80002946114B03EB34
:103E30008000FEF79DFEE26A0F4B1B68DB6A9A4228
:103E400011D901200D4B186038BD4FF0500383F39A
:103E50001188BFF36F8FBFF34F8FFEE729460848E5
:103E6000FEF786FEE7E70020EEE700BF10450020E2
:103E700030450020AC450020384600202445002075
:103E800068450020034B1B680360034B1B684360BD
:103E9000704700BF2045002034450020F8B5C8B168
:103EA0000C460546F9B1FEF705FF1B4B19686B6818
:103EB000C81A2268B2F1FF3F26D0184E36682F6824
:103EC000B74201D08B4224D9824215D80023236007
:103ED00001241AE04FF0500383F31188BFF36F8F72
:103EE000BFF34F8FFEE74FF0500383F31188BFF30A
:103EF0006F8FBFF34F8FFEE75B1A13442360284692
:103F0000FFF7C0FF002400E00024FEF7F5FE204686
:103F1000F8BD0124F9E700BF34450020204500200A
:103F2000014B01221A60704724450020054B1B6895
:103F300033B1054B1B680BB100207047022070475E
:103F4000012070472C4500201045002000284BD050
:103F500038B50446264B1B68834208D04FF0500307
:103F600083F31188BFF36F8FBFF34F8FFEE7836C2E
:103F700043B94FF0500383F31188BFF36F8FBFF342
:103F80004F8FFEE7013B8364C16A426C91422DD0A2
:103F90000BB1002038BD051D2846FEF70DFE68B99F
:103FA000E36A03EB8302920012498A5832B9012274
:103FB0009A4011490B6823EA02030B60606CE062CF
:103FC000C0F10703A361012404FA00F30A4A11684F
:103FD0000B43136000EB80002946064B03EB800087
:103FE000FEF7C6FD2046D5E7002070470020D1E748
:103FF00038460020AC4500203045002038B500226E
:1040000018210A20FFF790F9224A106008B1002415
:1040100009E0FCF713FFFAE758201F4B00FB0430C0
:1040200000F042F80134052CF6DD31E000F01BFB16
:104030001A4C208000F091FC608000F0FAFDA08016
:1040400000F073FFE08001F0ECF8208101F055FAF8
:10405000608134F9151058200F4B00FB053000F03B
:1040600003F90F4B03EB850383ED000A0135052DA2
:10407000DCDD00230A220A4906480068FFF778F9C8
:10408000012802D0074801F0E9FC0A20FFF72AFEC8
:104090000025ECE7704800203C4600204C480020FA
:1040A00058480020DC710008002304E000EB830284
:1040B000002111600133132BF8DD002380F850300C
:1040C000002343657047000090F8502000EB820306
:1040D00083ED000A0132054B83FB0213DB1003EB77
:1040E0008303A2EB830380F85030704767666666EF
:1040F00094B00023132B09DC00EB8302116814AA8F
:1041000002EB830242F8501C0133F3E700201FE06A
:104110001346C0F113029A4219DD14AA02EB83027E
:1041200052ED147A5A1C14A901EB820111ED147A94
:10413000F4EEC77AF1EE10FAEADD14A901EB83037D
:1041400003ED147A01EB820343ED147AE0E70130CA
:10415000122801DC0023DCE70123DFED097A07E008
:1041600014AA02EB830212ED147A77EE877A0133F8
:10417000122BF5DDB3EE020A87EE800A14B0704709
:1041800000000000DFED0A7AB4EEE70AF1EE10FA63
:1041900001DDB0EE670A9FED067AC0EE077A9FED6B
:1041A000057A67EE877A9FED040A37EE800A70473A
:1041B00000004843CCCC4C3FCDCCCC3D10B52DEDD0
:1041C000028B0446B0EE408AD0ED158A30EE687A54
:1041D000DFED237AB4EEE77AF1EE10FA26DDDFEDBB
:1041E000217A30EE678A38EE680AB0EEC00AFFF72F
:1041F000C9FF28EE008AF7EE007A77EEC07A68EE03
:10420000A78A38EE288A84ED158AB5EEC08AF1EEC9
:1042100010FA19D4DFED137AB4EEE78AF1EE10FA52
:1042200018DB38EE678A84ED158A13E078EEC07AE1
:104230009FED0B7AF4EEC77AF1EE10FAD3DDDFEDE5
:10424000097A30EE278ACEE7DFED067A38EE278A44
:1042500084ED158A94ED150ABDEC028B10BD00BFEC
:10426000000034430000B44310B50446084600F093
:104270000FFA2046FFF728FF2046FFF739FF2046B8
:10428000FFF79CFF10BD000010B5AA230B70184A61
:1042900013785C1C14704B70002318E09A0000EB3C
:1042A000830C941C10F823E001F804E002F1030EE3
:1042B0009CF8014001F80E4001339CF802E001F83F
:1042C00023E005329CF803C001F802C0DBB2052BE5
:1042D000E4D90022012304E0C85C0244D2B20133D5
:1042E000DBB2192BF8D98A765523CB7610BD00BFE7
:1042F000A64800200C4B1B7803B1704710B50A4B41
:1043000001221A70094C2378C3EBC30399001C22C5
:10431000074B19440748FEF777F92378B3FA83F37C
:104320005B09237010BD00BFA4480020A5480020F1
:10433000A84800209C0800200268044B9A4200D044
:104340007047034B00221A70FAE700BF0044004098
:10435000A448002008B519E0114A02EB8302116855
:10436000104A02EB830211600133052BF4DD0E4B82
:104370001978C1EBC1010D4B03EB81010948FFF72F
:1043800083FFFFF7B7FF0A20FFF7ACFC0A220449BE
:10439000074B1868FFF7B0F80128F4D10023E4E7D1
:1043A000744800208C480020A5480020A848002020
:1043B0007048002038B54FF4FA740A4B1B6913F0AB
:1043C000020F0DD1013C0BD0064D4FF48033AB6191
:1043D0000120FCF721FD0120A861FCF71DFDECE7A1
:1043E00038BD00BF0008024070B5FFF7E3FF0E4C78
:1043F0004FF48036A6610120FCF70EFD0223A36175
:104400000120FCF709FD0125A5612846FCF704FD04
:104410004FF40033A3612846FCF7FEFCA661284652
:10442000FCF7FAFC70BD00BF0008024038B5044636
:1044300000250FE0164B4FF400329A616400E4B29D
:104440000120FCF7E9FC0120114B9861FCF7E4FC2A
:104450000135EDB2072D0DD80D4B4FF480329A6126
:104460000120FCF7D9FC14F0800FE3D0084B0222A6
:104470009A61E3E7064C4FF48033A3610120FCF717
:10448000CBFC0223A3610120FCF7C6FC38BD00BFB2
:10449000000802402DE9F041114C4FF48038C4F877
:1044A00018800120FCF7B8FC0227A7610120FCF767
:1044B000B3FC0125A5612846FCF7AEFC26693E4009
:1044C000C4F818802846FCF7A7FCA7612846FCF72B
:1044D000A3FC16B12846BDE8F0810020FBE700BF31
:1044E00000080240F8B50D4C4FF48037A761012059
:1044F000FCF792FC0226A6610120FCF78DFC012549
:10450000A5612846FCF788FCA7612846FCF784FCD7
:10451000A6612846FCF780FCF8BD00BF00080240F9
:1045200070B50E4C4FF48036A6610120FCF774FC88
:104530004FF40033A3610120FCF76EFC0125A56157
:104540002846FCF769FCA6612846FCF765FC0223B7
:10455000A3612846FCF760FC70BD00BF0008024064
:10456000F8B507460024264608E0104B4FF4803289
:104570009A610120FCF750FC0134E4B2072C0DD8FD
:104580000A4D0120A861FCF747FC7600F6B22B69C2
:1045900013F0020FE9D046F00106E6E71FB1FFF77E
:1045A000A1FF3046F8BDFFF7BBFFFAE70008024065
:1045B00038B50C4C4FF48033A3610120FCF72CFC80
:1045C0004FF40033A3610120FCF726FC0125A5610F
:1045D0002846FCF721FC0223A3612846FCF71CFCBB
:1045E00038BD00BF00080240F8B505460F46164624
:1045F0001C46FFF7F9FE680000F0FE00FFF716FF0B
:10460000FFF748FFA0B93846FFF710FFFFF742FF5A
:1046100090B9FFF7E9FE680040F00100C0B2FFF773
:1046200005FFFFF737FF90B1FFF7C2FF012019E048
:10463000FFF7BEFF012015E0FFF7BAFF012011E0F0
:104640000120FFF78DFF3070013CE4B2013634B138
:10465000012CF5D00020FFF783FF3070F4E7FFF75F
:10466000A7FF2046F8BD00B583B00023ADF80430A5
:10467000022301AA0C213620FFF7B6FF9DF8043073
:104680009DF8050040EA032000B203B05DF804FB8A
:1046900008B5FCF711F80022034BFBF791FDFCF77E
:1046A00075F800EE100A08BD0080B63F38B54FF42B
:1046B000FA740A4B1B6913F0080F0ED1013C0CD0A1
:1046C000064D4FF48023AB610120FCF7A5FB0423CA
:1046D000AB610120FCF7A0FBEBE738BD0000024016
:1046E00038B5FFF7E3FF0E4C4FF48025A56101209C
:1046F000FCF792FB0823A3610120FCF78DFB042348
:10470000A3610120FCF788FB4FF40023A361012083
:10471000FCF782FBA5610120FCF77EFB38BD00BFE2
:104720000000024038B50446002510E0164B4FF457
:1047300000229A616400E4B20120FCF76DFB124B89
:1047400004229A610120FCF767FB0135EDB2072DC9
:104750000DD80D4B4FF480229A610120FCF75CFBD1
:1047600014F0800FE2D0084B08229A61E2E7064C71
:104770004FF48023A3610120FCF74EFB0823A361C3
:104780000120FCF749FB38BD00000240F8B5104C91
:104790004FF48027A7610120FCF73EFB0826A661A5
:1047A0000120FCF739FB0423A3610A20FCF734FB4A
:1047B00025693540A7610120FCF72EFBA661012089
:1047C000FCF72AFB0DB10120F8BD0020FCE700BF7B
:1047D0000000024070B50D4C4FF48026A661012008
:1047E000FCF71AFB0825A5610120FCF715FB042343
:1047F000A3610A20FCF710FBA6610120FCF70CFB6B
:10480000A5610120FCF708FB70BD00BF000002405D
:1048100038B50E4C4FF48025A5610120FCF7FCFA59
:104820004FF40023A3610120FCF7F6FA0423A361EF
:104830000A20FCF7F1FAA5610120FCF7EDFA082344
:10484000A3610120FCF7E8FA38BD00BF0000024078
:10485000F8B507460024254608E0114B4FF48022A6
:104860009A610120FCF7D8FA0134E4B2072C0ED883
:104870000B4E0423B3610120FCF7CEFA6D00EDB2BC
:10488000336913F0080FE8D045F00105E5E71FB1E3
:10489000FFF7A0FF2846F8BDFFF7BAFFFAE700BF11
:1048A0000000024010B50C4C4FF48023A36101209E
:1048B000FCF7B2FA4FF40023A3610120FCF7ACFA35
:1048C0000423A3610120FCF7A7FA0823A3610120B8
:1048D000FCF7A2FA10BD00BF00000240F8B5054683
:1048E0000F4616461C46FFF7FBFE680000F0FE0070
:1048F000FFF718FFFFF74AFFA0B93846FFF712FF8E
:10490000FFF744FF90B9FFF7EBFE680040F00100AD
:10491000C0B2FFF707FFFFF739FF90B1FFF7C2FF03
:10492000012019E0FFF7BEFF012015E0FFF7BAFFF5
:10493000012011E00120FFF78BFF3070013CE4B251
:10494000013634B1012CF5D00020FFF781FF307023
:10495000F4E7FFF7A7FF2046F8BD00B583B00023BA
:10496000ADF80430022301AA0C213620FFF7B6FF70
:104970009DF804309DF8050040EA032000B203B022
:104980005DF804FB38B54FF4FA740A4B1B6913F059
:10499000200F0ED1013C0CD0064D4FF48013AB61BB
:1049A0000120FCF739FA1023AB610120FCF734FA3F
:1049B000EBE738BD0008024038B5FFF7E3FF0E4CC7
:1049C0004FF48015A5610120FCF726FA2023A3618E
:1049D0000120FCF721FA1023A3610120FCF71CFA47
:1049E0004FF40013A3610120FCF716FAA561012022
:1049F000FCF712FA38BD00BF0008024038B5044683
:104A0000002510E0164B4FF400129A616400E4B2E6
:104A10000120FCF701FA124B10229A610120FCF7E9
:104A2000FBF90135EDB2072D0DD80D4B4FF4801277
:104A30009A610120FCF7F0F914F0800FE2D0084BE6
:104A400020229A61E2E7064C4FF48013A361012013
:104A5000FCF7E2F92023A3610120FCF7DDF938BD62
:104A600000080240F8B5104C4FF48017A7610120F0
:104A7000FCF7D2F92026A6610120FCF7CDF910231E
:104A8000A3610A20FCF7C8F925693540A761012018
:104A9000FCF7C2F9A6610120FCF7BEF90DB10120B7
:104AA000F8BD0020FCE700BF0008024070B50D4CC7
:104AB0004FF48016A6610120FCF7AEF92025A56110
:104AC0000120FCF7A9F91023A3610A20FCF7A4F93F
:104AD000A6610120FCF7A0F9A5610120FCF79CF973
:104AE00070BD00BF0008024038B50E4C4FF4801571
:104AF000A5610120FCF790F94FF40013A361012098
:104B0000FCF78AF91023A3610A20FCF785F9A56157
:104B10000120FCF781F92023A3610120FCF77CF937
:104B200038BD00BF00080240F8B5074600242546FE
:104B300008E0114B4FF480129A610120FCF76CF9E8
:104B40000134E4B2072C0ED80B4E1023B3610120C0
:104B5000FCF762F96D00EDB2336913F0200FE8D075
:104B600045F00105E5E71FB1FFF7A0FF2846F8BDB6
:104B7000FFF7BAFFFAE700BF0008024010B50C4C7F
:104B80004FF48013A3610120FCF746F94FF40013A2
:104B9000A3610120FCF740F91023A3610120FCF779
:104BA0003BF92023A3610120FCF736F910BD00BFBB
:104BB00000080240F8B505460F4616461C46FFF7AA
:104BC000FBFE680000F0FE00FFF718FFFFF74AFF4A
:104BD000A0B93846FFF712FFFFF744FF90B9FFF77F
:104BE000EBFE680040F00100C0B2FFF707FFFFF7DF
:104BF00039FF90B1FFF7C2FF012019E0FFF7BEFFB8
:104C0000012015E0FFF7BAFF012011E00120FFF7B6
:104C10008BFF3070013CE4B2013634B1012CF5D089
:104C20000020FFF781FF3070F4E7FFF7A7FF204671
:104C3000F8BD00B583B00023ADF80430022301AA0B
:104C40000C213620FFF7B6FF9DF804309DF80500D3
:104C500040EA032000B203B05DF804FB38B54FF41E
:104C6000FA740B4B1B6913F4005F0FD1013C0DD09C
:104C7000074D4FF08053AB610120FCF7CDF84FF4A6
:104C80008053AB610120FCF7C7F8EAE738BD00BFED
:104C90000010024038B5FFF7E1FF0F4C4FF0805590
:104CA000A5610120FCF7B8F84FF40053A36101207F
:104CB000FCF7B2F84FF48053A3610120FCF7ACF885
:104CC0004FF00053A3610120FCF7A6F8A561012075
:104CD000FCF7A2F838BD00BF0010024038B504460A
:104CE000002511E0184B4FF000529A616400E4B2C5
:104CF0000120FCF791F8144B4FF480529A61012087
:104D0000FCF78AF80135EDB2072D0ED80E4B4FF0A7
:104D100080529A610120FCF77FF814F0800FE1D0F7
:104D2000094B4FF400529A61E0E7074C4FF0805373
:104D3000A3610120FCF770F84FF40053A361012038
:104D4000FCF76AF838BD00BF00100240F8B5114CFE
:104D50004FF08057A7610120FCF75EF84FF4005632
:104D6000A6610120FCF758F84FF48053A3610A2094
:104D7000FCF752F825693540A7610120FCF74CF893
:104D8000A6610120FCF748F80DB10120F8BD002014
:104D9000FCE700BF0010024070B50E4C4FF080568B
:104DA000A6610120FCF738F84FF40055A5610120F9
:104DB000FCF732F84FF48053A3610A20FCF72CF87B
:104DC000A6610120FCF728F8A5610120FCF724F872
:104DD00070BD00BF0010024038B50F4C4FF0805539
:104DE000A5610120FCF718F84FF00053A3610120E2
:104DF000FCF712F84FF48053A3610A20FCF70CF87B
:104E0000A5610120FCF708F84FF40053A3610120CD
:104E1000FCF702F838BD00BF00100240F8B50746A5
:104E20000024254608E0114B4FF080529A61012082
:104E3000FBF7F2FF0134E4B2072C0FD80B4E4FF40E
:104E40008053B3610120FBF7E7FF6D00EDB23369DA
:104E500013F4005FE7D045F00105E4E71FB1FFF769
:104E60009BFF2846F8BDFFF7B7FFFAE700100240A6
:104E700010B50D4C4FF08053A3610120FBF7CCFF20
:104E80004FF00053A3610120FBF7C6FF4FF480539E
:104E9000A3610120FBF7C0FF4FF40053A361012081
:104EA000FBF7BAFF10BD00BF00100240F8B5054681
:104EB0000F4616461C46FFF7EDFE680000F0FE00A8
:104EC000FFF70CFFFFF742FFA0B93846FFF706FFD8
:104ED000FFF73CFF90B9FFF7DDFE680040F00100EE
:104EE000C0B2FFF7FBFEFFF731FF90B1FFF7C0FF45
:104EF000012019E0FFF7BCFF012015E0FFF7B8FF24
:104F0000012011E00120FFF789FF3070013CE4B27D
:104F1000013634B1012CF5D00020FFF77FFF30704F
:104F2000F4E7FFF7A5FF2046F8BD00B583B00023E6
:104F3000ADF80430022301AA0C213620FFF7B6FF9A
:104F40009DF804309DF8050040EA032000B203B04C
:104F50005DF804FB38B54FF4FA740B4B1B6913F47E
:104F6000005F0FD1013C0DD0074D4FF08053AB6176
:104F70000120FBF751FF4FF48053AB610120FBF799
:104F80004BFFEAE738BD00BF0004024038B5FFF729
:104F9000E1FF0F4C4FF08055A5610120FBF73CFF6E
:104FA0004FF40053A3610120FBF736FF4FF4805309
:104FB000A3610120FBF730FF4FF00053A3610120F4
:104FC000FBF72AFFA5610120FBF726FF38BD00BFD4
:104FD0000004024038B50446002511E0184B4FF09C
:104FE00000529A616400E4B20120FBF715FF144BF4
:104FF0004FF480529A610120FBF70EFF0135EDB2AC
:10500000072D0ED80E4B4FF080529A610120FBF70E
:1050100003FF14F0800FE1D0094B4FF400529A6166
:10502000E0E7074C4FF08053A3610120FBF7F4FE4B
:105030004FF40053A3610120FBF7EEFE38BD00BF23
:1050400000040240F8B5114C4FF08057A7610120D1
:10505000FBF7E2FE4FF40056A6610120FBF7DCFEF1
:105060004FF48053A3610A20FBF7D6FE2569354033
:10507000A7610120FBF7D0FEA6610120FBF7CCFE63
:105080000DB10120F8BD0020FCE700BF0004024084
:1050900070B50E4C4FF08056A6610120FBF7BCFEA8
:1050A0004FF40055A5610120FBF7B6FE4FF4805385
:1050B000A3610A20FBF7B0FEA6610120FBF7ACFE5E
:1050C000A5610120FBF7A8FE70BD00BF00040240EF
:1050D00038B50F4C4FF08055A5610120FBF79CFEC1
:1050E0004FF00053A3610120FBF796FE4FF480536D
:1050F000A3610A20FBF790FEA5610120FBF78CFE5F
:105100004FF40053A3610120FBF786FE38BD00BFBA
:1051100000040240F8B507460024254608E0114B7C
:105120004FF080529A610120FBF776FE0134E4B221
:10513000072C0FD80B4E4FF48053B3610120FBF7BF
:105140006BFE6D00EDB2336913F4005FE7D045F0FC
:105150000105E4E71FB1FFF79BFF2846F8BDFFF705
:10516000B7FFFAE70004024010B50D4C4FF0805332
:10517000A3610120FBF750FE4FF00053A361012013
:10518000FBF74AFE4FF48053A3610120FBF744FE76
:105190004FF40053A3610120FBF73EFE10BD00BF9A
:1051A00000040240F8B505460F4616461C46FFF7B8
:1051B000EDFE680000F0FE00FFF70CFFFFF742FF76
:1051C000A0B93846FFF706FFFFF73CFF90B9FFF79D
:1051D000DDFE680040F00100C0B2FFF7FBFEFFF704
:1051E00031FF90B1FFF7C0FF012019E0FFF7BCFFCE
:1051F000012015E0FFF7B8FF012011E00120FFF7C3
:1052000089FF3070013CE4B2013634B1012CF5D095
:105210000020FFF77FFF3070F4E7FFF7A5FF20467F
:10522000F8BD00B583B00023ADF80430022301AA15
:105230000C213620FFF7B6FF9DF804309DF80500DD
:1052400040EA032000B203B05DF804FB38B54FF428
:10525000FA740A4B1B6913F0040F0ED1013C0CD0F9
:10526000064D4FF40033AB610120FBF7D5FD02235F
:10527000AB610120FBF7D0FDEBE738BD0010024029
:1052800038B5FFF7E3FF0E4C4FF40035A561012060
:10529000FBF7C2FD0423A3610120FBF7BDFD022340
:1052A000A3610120FBF7B8FD4FF48023A361012027
:1052B000FBF7B2FDA5610120FBF7AEFD38BD00BFD5
:1052C0000010024038B50446002510E0164B4FF49C
:1052D00080229A616400E4B20120FBF79DFD124B2D
:1052E00002229A610120FBF797FD0135EDB2072DEF
:1052F0000DD80D4B4FF400329A610120FBF78CFD65
:1053000014F0800FE2D0084B04229A61E2E7064CC9
:105310004FF40033A3610120FBF77EFD0423A3615A
:105320000120FBF779FD38BD00100240F8B5104CA4
:105330004FF40037A7610120FBF76EFD0426A6613C
:105340000120FBF769FD0223A3610A20FBF764FD3E
:1053500025693540A7610120FBF75EFDA6610120AC
:10536000FBF75AFD0DB10120F8BD0020FCE700BF9E
:105370000010024070B50D4C4FF40036A6610120BC
:10538000FBF74AFD0425A5610120FBF745FD02233B
:10539000A3610A20FBF740FDA6610120FBF73CFD5D
:1053A000A5610120FBF738FD70BD00BF0010024071
:1053B00038B50E4C4FF40035A5610120FBF72CFDEC
:1053C0004FF48023A3610120FBF726FD0223A36194
:1053D0000A20FBF721FDA5610120FBF71DFD042339
:1053E000A3610120FBF718FD38BD00BF001002408B
:1053F000F8B507460024254608E0114B4FF400326B
:105400009A610120FBF708FD0134E4B2072C0ED8A5
:105410000B4E0223B3610120FBF7FEFC6D00EDB2E1
:10542000336913F0040FE8D045F00105E5E71FB13B
:10543000FFF7A0FF2846F8BDFFF7BAFFFAE700BF65
:105440000010024010B50C4C4FF40033A361012052
:10545000FBF7E2FC4FF48023A3610120FBF7DCFCA7
:105460000223A3610120FBF7D7FC0423A3610120E1
:10547000FBF7D2FC10BD00BF00100240F8B5054696
:105480000F4616461C46FFF7FBFE680000F0FE00C4
:10549000FFF718FFFFF74AFFA0B93846FFF712FFE2
:1054A000FFF744FF90B9FFF7EBFE680040F0010002
:1054B000C0B2FFF707FFFFF739FF90B1FFF7C2FF58
:1054C000012019E0FFF7BEFF012015E0FFF7BAFF4A
:1054D000012011E00120FFF78BFF3070013CE4B2A6
:1054E000013634B1012CF5D00020FFF781FF307078
:1054F000F4E7FFF7A7FF2046F8BD00B583B000230F
:10550000ADF80430022301AA0C213620FFF7B6FFC4
:105510009DF804309DF8050040EA032000B203B076
:105520005DF804FB2DE9F047089D0E4604460F4642
:10553000002B4AD194468C45B2FA82F260D942B12E
:10554000C2F12003974020FA03F30CFA02FC1F4338
:1055500094404FEA1C4E1FFA8CF6B7FBFEF1230C69
:105560000EFB117743EA074301FB06F098420AD984
:105570001CEB030301F1FF3780F01581984240F2E4
:105580001281023963441B1AA4B2B3FBFEF00EFB76
:10559000103344EA034400FB06F6A6420AD91CEB8A
:1055A000040400F1FF3380F00081A64240F2FD8048
:1055B0006444023840EA0140A41B00211DB1D440DC
:1055C0000023C5E90043BDE8F0878B4205D90DB142
:1055D000C5E9000100210846F5E7B3FA83F1002987
:1055E00046D1B34202D3824200F2F580841A66EBC0
:1055F000030201201746002DE5D0C5E90047E2E788
:10560000002A40F09380A1EB0C034FEA1C471FFADD
:105610008CFE0121B3FBF7F607FB1630230C43EA9F
:1056200000430EFB06F0984208D91CEB030306F179
:10563000FF3802D2984200F2D08046461B1AA4B22C
:10564000B3FBF7F007FB103344EA03440EFB00FE04
:10565000A64508D91CEB040400F1FF3302D2A6458D
:1056600000F2B6801846A4EB0E0440EA0640A5E717
:10567000C1F120078B4022FA07FC4CEA030C06FA22
:1056800001FE20FA07F426FA07F344EA0E0400FAB2
:1056900001F84FEA1C404FEA1449B3FBF0FE1FFA31
:1056A0008CF600FB1E3349EA03430EFB06F99945CD
:1056B00002FA01F20BD91CEB03030EF1FF3A80F062
:1056C0008580994540F28280AEF1020E6344A3EBDF
:1056D0000909A4B2B9FBF0F300FB139944EA0944A9
:1056E00003FB06F6A64208D91CEB040403F1FF30C5
:1056F00068D2A64266D9023B644443EA0E40A41B2A
:10570000A0FB02E6B4427346B14652D34FD05DB11E
:10571000B8EB030264EB090404FA07F722FA01F379
:105720001F43CC40C5E9007400214CE7C2F12001C1
:1057300020FA01F30CFA02FC26FA01F196403343F9
:105740004FEA1C471FFA8CFEB1FBF7F007FB10165F
:10575000190C41EA064100FB0EF68E4204FA02F4EF
:1057600008D91CEB010100F1FF382DD28E422BD954
:1057700002386144891B9BB2B1FBF7F607FB161197
:1057800043EA014306FB0EF1994208D91CEB0303DF
:1057900006F1FF3814D2994212D9023E63445B1AD3
:1057A00046EA004136E73946EDE6184602E7F0459D
:1057B000ADD2BEEB020366EB0C060138B146A6E79C
:1057C0004646ECE7034698E74046D3E7D6467EE7F1
:1057D0006444023847E708460DE7023E63442DE77C
:1057E000024A0349034800F0C9B800BF1000002076
:1057F00001650008200000200C4B4168994210B55B
:10580000044601D000F07CFEA168094B994202D009
:10581000204600F075FEE168064B994204D0204610
:10582000BDE8104000F06CBE10BD00BFE048002095
:1058300048490020B04900202DE9F843314A324C54
:105840003249DFF8DC90DFF8DC80314F1160002551
:1058500004232946082204F15C00C4E903352D4ED7
:10586000A560C4E90055C4E90555656600F046F930
:1058700004F15800C4E90749C4E90987E66200F069
:1058800011FA2946244B6367082204F1C400C4E9D5
:105890001A55C4E91E552567C4F8CC50C4F8805089
:1058A00000F02CF904F1680304F1C000C4F884305E
:1058B000C4E92298C4E9247600F0F4F9174BC4F83F
:1058C000DC30294604F596700822C4E93455C4E951
:1058D0003855C4F8D850C4F83451C4F8E85000F032
:1058E0000DF904F1D003C4E93D87C4F8F09004F544
:1058F0009470C4F8FC60C4F8EC30BDE8F84300F0E4
:10590000D1B900BF184A0020E0480020E157000844
:10591000D15A0008F55A00080900010012000200DF
:105920006D5A0008915A000810B504460A4800F064
:10593000BDF9636B23B9094B094A1B68626323B144
:10594000BDE81040044800F0B3B9FFF775FFBDE8AB
:105950001040014800F0ACB9284A0020184A002045
:10596000F9570008014800F0A1B900BF284A0020FB
:10597000014800F09DB900BF284A00202DE9F843F6
:105980000746884616464FF00009D6E90154013D06
:1059900010D4A389012B08D9B4F90E300133214664
:1059A000384602D0C04749EA0009013D6B1C04F1AA
:1059B0006804EED13668002EE7D14846BDE8F8838A
:1059C00070B5054688B008460C46FAF7F9FF224E36
:1059D0006A6B059001214318CDE9066104A80221F4
:1059E00004940393AC68019002916AB3636EB4F9B6
:1059F0000C20D90701D496051FD5900405D442F494
:105A0000005223F40053A2816366990420D401AAB2
:105A10002146284600F09AFE636EC8B90A25DA07C7
:105A200002D4A3899B0502D5284608B070BDA06D9D
:105A300000F03EF9284608B070BDA06D00F036F9C0
:105A4000B4F90C20636ED8E72846FFF76DFFCDE769
:105A50004FF0FF35E3E700BFFC710008024B014641
:105A60001868FFF7ADBF00BF1C00002010B50C4642
:105A7000B1F90E1000F0BCF8002803DB236D0344DD
:105A8000236510BDA38923F48053A38110BD00BFFB
:105A90002DE9F0410C46B1F90C101F46CB05054627
:105AA00016460BD421F48051A1813B46B4F90E1067
:105AB00032462846BDE8F04100F0B0B8B4F90E1007
:105AC0000223002200F07EF8B4F90C10EAE700BFD0
:105AD00010B50C46B1F90E1000F074F8B4F90C30A2
:105AE000421C0EBF23F4805343F480532065A381EE
:105AF00010BD00BFB1F90E1000F052B8830730B5E9
:105B000047D0541E002A3ED0CAB2034601E0013CF1
